:0A0000000C9496000C9400000C9480
:10000A0000000C9400000C9400000C9400000C9466
:10001A0000000C9400000C9400000C9400000C9456
:10002A0000000C9400000C9400000C9400000C9446
:10003A0000000C9400000C9400000C9400000C9436
:10004A0000000C9400000C9400000C9400000C9426
:10005A0000000C9400000C9400000C9400000C9416
:10006A0000000C9400000C9400000C9400000C9406
:10007A0000000C9400000C9400000C9400000C94F6
:10008A0000000C9400000C9400000C9400000C94E6
:10009A0000000C9400000C9400000C9400000C94D6
:1000AA0000000C9400000C9400000C9400000C94C6
:1000BA0000000C9400000C9400000C9400000C94B6
:1000CA0000000C9400000C9400000C9400000C94A6
:1000DA0000000C9400000C9400001027E803640050
:1000EA000A000100001000011000010003030302CE
:1000FA00020C00080001000652616E646F6D204E0A
:10010A00756D626572730025303033690000010035
:10011A002D4E414E00494E4600000100040A1801C6
:10012A000000F894EE27EFBBF1E0F5BFE5BFE093DE
:10013A007400E09375008DE0A2E0BB27ED938A95E9
:10014A00E9F780E090E2A0E0B2E0ED930197E9F7E9
:10015A00E4E2F1E085919591009761F0A591B5915E
:10016A0005901590BF01F00105900D920197E1F7F6
:10017A00FB01F0CF8BBF8CBFE0E0EEBBEFEFEDBF32
:10018A00E1E2EEBFC0E0DAE00C945D012C978CE06E
:10019A0060E070E0E6EFF0E0DED21A93099A089A7E
:1001AA000A9A0B9A0C9A0D9AA2E3B0E03FD310E098
:1001BA001C3070F4A2E0B0E039D3E12FF0E0DE01A8
:1001CA001196AE0FBF1FAC910DD009D01F5FF0CFB3
:1001DA00ECE04E2EA42D1ED018812D960895119A6A
:1001EA00119808951A931A2F13FF02C0159A01C085
:1001FA00159812FF02C0149A01C0149811FF02C088
:10020A00139A01C0139810FF02C0129A01C01298E3
:10021A00199108951A930A930A2F109843D28FC0FE
:10022A001A930A930A2F109A3DD289C088D29D0147
:10023A0010E04CD2A491F4DFE12FF0E0E20FF31FBB
:10024A00E491E030B1F70DC07AD29D0110E03ED2C0
:10025A00A081E6DFD901EE27A10FBE1FEC91E030A5
:10026A00B1F774D2249608951A930A931A2F0A8121
:10027A00E12FF0E0309719F4A02FA05814C0E13014
:10028A00A0E0FA0719F4A02FA0540DC0E230A0E0B4
:10029A00FA0719F4A02FAC5606C0E330A0E0FA071B
:1002AA0019F4A02FAC52B6DF19810881239608955C
:1002BA006DDFE1E0EA93A0E0D7DFA2E0B1E0B6DFCC
:1002CA00409A399AE1E0E5BD309931C0E6B5F0E0EF
:1002DA00DF012FD037D0DF01E8EEF3E08CD25E2EBB
:1002EA006F2EE0E0FAE0FA93EA93E1E1F1E0FA93A3
:1002FA00EA93E52DF62D6627772793D284E088D1F5
:10030A002896E6E0EA93A1E0AFDFA0E0BAE09CDF3E
:10031A003324E0E53E1630F4419ADED14198DCD12F
:10032A003394F7CF309BFECFAAE0B0E07FD2CCCF98
:10033A00FFCF1A930A938D01F80125D2D2D10991E0
:10034A0019910895E091040AF091050A6091060A4C
:10035A007091070AADE6BEE486EC91E419D2EE5933
:10036A00F8486F4F7F4FBDD1FB01FF770895E5D164
:10037A009D015E8112964DD23097E1F0D901149613
:10038A0048D28F01309759F00230E0E01E0760F042
:10039A00F80131978F01D9011496ED93FC93D90195
:1003AA001296A8D131975083D90133D2FF230AF08C
:1003BA00A1D105C0D901EFEFFFEFED93FC93C4D1B2
:1003CA0027960895BA93AA932697B7D110E0AC85D9
:1003DA00BD85E0E0F0E0ED93FC93EA89FB89319674
:1003EA00EA8BFB8B3197E4912E2FE03009F409C197
:1003FA00E12FE03031F4253211F411E001C080D14F
:10040A00FFC0E130A1F4253211F47AD1F8C012E02C
:10041A0040E000E02D3211F401E0F2C02B3211F479
:10042A004BE2EEC0203211F440E2EAC002C0E230F0
:10043A0039F450E013E0203311F40068E1C003C03E
:10044A00E33009F0DDC0203310F02A3308F007C08A
:10045A00AAE05A9F502DE22FE0535E0FD1C0E22F3F
:10046A00E33639F454D1E889F989A481AA9355D19C
:10047A00C6C0E33729F44BD156D1FBD01E2F07C093
:10048A00E03749F444D14FD100D11E2F08600260F1
:10049A000F7730E038C0E43611F0E93611F4046021
:1004AA0002C0E53731F4E4EEF0E0EE83FF8315E0B5
:1004BA000CC0E83511F4086003C0E83709F09FC0A2
:1004CA00EEEEF0E0EE83FF8314E002FF15C01FD1C9
:1004DA00A889B9891496ED91FD91EA87FB87AB85C6
:1004EA00AA2322F44CD1EA87FB874DE2403011F06F
:1004FA001F5F01C00B7F07C00AD1A889B98914966A
:10050A0088D1EA87FB8700FD10C0151770F407FF32
:10051A0008C002FF04C00B7F242F115001C020E342
:10052A0001C020E2EDD05150F0CF312F01FF16C0AB
:10053A00303099F003FF06C0EE81FF812591EE83EA
:10054A00FF8305C0AE81BF812D91AE83BF83D8D012
:10055A00503009F051503150EBCF48C020E3EE81C2
:10056A00FF815BD1E887F987EE81FF813296EE83BE
:10057A00FF83E885F985AA85BB85AE17BF0750F0CA
:10058A002F5FA885B985EA85FB85EA1BFB0BEA87FD
:10059A00FB87EFCF2A3328F003FF02C0295F01C08F
:1005AA00295D04FD19C0213320F4A885B985119766
:1005BA0009F409C0531710F000FF01C011C020E26E
:1005CA0007FF0AC020E3006102FF06C00B7F4A93BF
:1005DA00A4D0503009F0515093D0503009F0515006
:1005EA003150A885B985129708F0B8CF00FF07C027
:1005FA00503029F05150E0E2EA938FD0F9CF10E061
:10060A00ECCEAC85BD85ED91FD919ED064960895A2
:10061A00FF92F82E269791D0FE01A9D046855785DC
:10062A00042E052A19F4EFEFFFEF1FC0DE0118961A
:10063A00A2D08D0148875987E0E0EA87EB87DE017F
:10064A001C9699D0ED91FD91FA93EA931A930A9325
:10065A00ECEBF1E0FA93EA93DE011C96B3DE9F011C
:10066A00A885B985E0E0EC93F9016ED02C96FF904D
:10067A000895BA93AA93A991B991EE27FF276D918C
:10068A00662311F03196FBCF0895BA93AA93AA274D
:10069A00BB27E991F9910590002011F01196FBCF43
:1006AA00FD010895A2E0B0E0C1D0E02FE07F1E2F47
:1006BA0012951F70A12F96DD92DDE02FEF701E2F8D
:1006CA00A12F90DDA2E0B0E0B1D089CDE12F1F5F6C
:1006DA00F0E0E20FF31F089588E893E10197F1F73C
:1006EA000895E093040AF093050A6093060A70934A
:1006FA00070A0895ED91FD913196FE93EE930895C0
:10070A002A93AD85BE85EF85F88909950895E8890C
:10071A00F9893497E88BF98B0895AD85BE85EF8505
:10072A00F88909950895A889B9891496ED91FD91DA
:10073A00EE83FF83AE81BF8108955A934A933A9319
:10074A002A931A930A9308955D814C813B812A81E9
:10075A00198108810895AF93BF93DB01AC0FBD1FC8
:10076A0005900D928A95E1F7BF91AF910895002403
:10077A00EF0DF01D08950024AF0DB01D0895F195F9
:10078A00E195F04008956F2F660F660B762F089556
:10079A007A9F702D6B9F700DF89F700DE99F700DF9
:1007AA006A9F602D710DFB9F600D711DE89F600DA2
:1007BA00711D8827FA9FF02D610D781FEB9FF00DB0
:1007CA00611D781FEA9FE02DF10D681F781F0895BB
:1007DA000024112490E1AA0FBB1F001C111C0E1A41
:1007EA001F0A18F40E0E1F1E01C0A1609A9599F7F0
:1007FA00FD01D0010895E894B7FF04C0B195A19511
:10080A00B0406894F7FDBBDFE3DFFD010EF4B7DF0C
:10081A000895ED91FC91119708950590F491E02DBA
:10082A0008957A936A93FA93EA930895109639F0A1
:10083A00A89580EA9FE00197F1F71197C9F7089503
:00000001FF
