:0C0000000C947B000C9400000C94000099
:10000C000C9400000C9400000C9400000C94000064
:10001C000C9400000C9400000C9400000C94000054
:10002C000C9400000C9400000C9400000C94000044
:10003C000C9400000C9400000C9400000C94000034
:10004C000C9400000C9400000C9400000C94000024
:10005C000C9400000C9400000C9400000C94000014
:10006C000C9400000C9400000C9400000C94000004
:10007C000C9400000C9400000C9400000C940000F4
:10008C000C9400000C9400000C9400000C940000E4
:10009C000C9400000C9400000C9400000C940000D4
:1000AC000C9400000C9400000C9400000C940000C4
:1000BC000C9400000C9400000C9400000C940000B4
:1000CC000C9400000C9400000C9400000C940000A4
:1000DC000C9400000C94000003030302020C0008B3
:1000EC00000100060000C8430000F894EE27EFBBA7
:1000FC00F1E0F5BFE5BFE0937400E09375008DE08F
:10010C00A2E0BB27ED938A95E9F780E090E2A0E0AE
:10011C00B2E0ED930197E9F7E4EFF0E0859195916A
:10012C00009761F0A591B59105901590BF01F00174
:10013C0005900D920197E1F7FB01F0CF8BBF8CBFBF
:10014C00E0E0EEBBEFEFEDBFE1E2EEBFC0E0DAE0E6
:10015C000C94E3012C978CE0A0E0B0E0E4EEF0E02E
:10016C000E948F030A93099A089A0A9A0B9A0C9A7E
:10017C000D9AA2E3B0E00E94160200E00C3068F485
:10018C000E940002E02FF0E0DE011196AE0FBF1FBF
:10019C00AC910E9404020F5FF1CFECE0E093000AF7
:1001AC00A091000A21D008812D960895119A1198DA
:1001BC000895AA93E881E87011F0159A01C015987A
:1001CC00E881E47011F0149A01C01498E881E2708F
:1001DC0011F0139A01C01398E881E17011F0129A92
:1001EC0001C0129821960895AA930A9310980E9420
:1001FC0000020E9408020E940F02D8DF088129C069
:10020C00AA930A93109A0E9400020E9408020E946C
:10021C000F02CCDF08811DC0AA93E881F0E0309773
:10022C0019F4A981A05814C0E130A0E0FA0719F420
:10023C00A981A0540DC0E230A0E0FA0719F4A981FD
:10024C00AC5606C0E330A0E0FA0719F4A981AC5211
:10025C00CBDF229608950E947D0324971A930A936C
:10026C00259AEE81FF8168857985A0E0B4E284EF60
:10027C0098E40E940B03EA83FB836C837D830E94CA
:10028C004D028F01AA81BB818C819D8166277727C6
:10029C000E9486020E9482030E94B902DF01CB01F8
:1002AC00E0E0F0E060E07FE30E94500310F00F5FAD
:1002BC001F4FE0E4E0938000E9E0E0938100F80157
:1002CC003197EF2FF0E0E0938900E02FE150E093BD
:1002DC008800198108812A9608953B9A3A9A399A8E
:1002EC00389A449A459A469A0895349B06C0359B91
:1002FC001FC0369B38C0EE275BC0E1E3429A419A9F
:10030C00409A4CD0349B54C0E4E3439A429846D074
:10031C00349B4EC0E7E3429A419840D0349B48C08E
:10032C00EAE2419A40983AD0349B42C0EE2740C052
:10033C00E2E3429A419A409A31D0359B39C0E5E3C9
:10034C00439A42982BD0359B33C0E8E3429A4198AC
:10035C0025D0359B2DC0E0E3419A40981FD0359BAA
:10036C0027C0EE2725C0E3E3429A419A409A16D063
:10037C00369B1EC0E6E3439A429810D0369B18C0B9
:10038C00E9E3429A41980AD0369B12C0E3E2419AC3
:10039C00409804D0369B0CC0EE270AC00000000029
:1003AC0000000000000000000000000000000895A4
:1003BC00439842984198409808950E94B0000E943A
:1003CC0073010E947B01E093010AA0E0B0E088EC8D
:1003DC0093E40E943101E091010AE03091F3E0E0F6
:1003EC00EA93A0E00E941201A091010A0E9406016A
:1003FC00E8CFFFCFA2E0B0E00C9416020E94DF0021
:10040C000C94DC00E981E07F0E2F02950F70A02F79
:10041C00F5CFE981EF700E2FA02F0E94DF00EACFFD
:10042C00109639F080ED97E00197F1F7A8951197A8
:10043C00C9F70895552342F4503811F4E0FF04C075
:10044C003196691F791F6BF050E8572711F45F93B1
:10045C00CAC05F3F31F0660F000C57956795752F3A
:10046C0008955F9300200AF0CAC0C3C050E8192E4B
:10047C001522880F991F9527550F879550E8072E41
:10048C000522660F771F7527550F67950895689499
:10049C0001C0E8945F93F2DF703818F07F3F08F4E6
:1004AC00A2C056E1571BAAF4519558300EF459309E
:1004BC0030F0EFEFFFEF6FEF7FE777F91AC0772798
:1004CC005523B9F0EE0FFF1F661F771F5A95D1F712
:1004DC0010C07727583028F0EF2FF62F672F585081
:1004EC00F9CF552331F076956795F795E7955A95A1
:1004FC00D1F700200AF4EED05F910895689401C002
:10050C00E894309760407040B1F0002426F07723D7
:10051C0012F40094DFD0172E7EE1112032F07A9580
:10052C00EE0FFF1F661F111CF9CFEF2FF62F612D59
:10053C005F938ADF5F9108954F93AF01FD01DA015C
:10054C00AB01BC01CA01402D012C142E4F91089512
:10055C00EA0FFB1F681F0895E095F0956095EF5F1B
:10056C00FF4F6F4F08955F9381DF903849F150E84A
:10057C001526703821F1572F591B2BF112F4DCDFA3
:10058C00FACF583118F0AA27BB278827583028F003
:10059C00AB2FB82F88275850F9CF552329F08695C3
:1005AC00B795A7955A95D9F7502D512572F0D0DFF4
:1005BC0038F46795F795E795739513F420C0BCDF75
:1005CC0043DF5F910895D8F7FBCFEA1BFB0B680B59
:1005DC0051F010F40094C0DF662392F3EE0FFF1F6E
:1005EC00661F7A95CBF7EE27FF27662777275F9153
:1005FC000895EFEFFFEF6FE77FEF5F910895EFEF57
:10060C00FFEF6FE77FE75F9108955F932FDF7038FF
:10061C0021F411200AF4EDCFF2CF903809F4E3CF96
:10062C0001240894970B1BF4D4F30020F3CF792FFB
:10063C001F932F933F934F93112411272227332776
:10064C004427552790E2AE17BF078607410730F0C5
:10065C00AE1BBF0B860B410B089401C08894551F31
:10066C00221F331F111CAA1FBB1F881F441F9A95E2
:10067C0051F7F901612D4F913F912F911F916623F5
:10068C0032F0550FEE1FFF1F661F7A9543F2D2DE34
:10069C005F91089599239AF0772342F0971748F0C9
:1006AC0029F4AE17BF07860720F031F09894889490
:1006BC00089598940894089518948894089577232D
:1006CC00C2F7971798F3A9F7EA17FB07680788F39F
:1006DC0099F3ECCFF09560957095E195FF4F6F4FC6
:1006EC007F4F08956F2F660F660B762F08959A93A0
:1006FC008A93BA93AA930895182E862F612D192EDA
:10070C00972F712D1B2EBF2FF12D1A2EAE2FE12DF1
:10071C000895AC0FBD1F05900D928A95E1F70895D1
:00000001FF
