:020000001DC021
:10000200FECFFDCFFCCFFBCFFACFF9CFF8CFF7CFA2
:10001200F6CFF5CFF4CFF3CFF2CFF1CF414755531F
:1000220054494E20444F4D494E4755455A20413080
:10003200303234393235370D0000F894EE27ECBBFC
:10004200E5BF8DE0A2E0BB27ED938A95E9F780E05A
:1000520092E0A0E6ED930197E9F7E0E0E1BBE2BBB5
:10006200E3BBEFE5EDBFE2E0EEBFC0EED0E029C0BA
:10007200AA930A93C0982FD000E0083060F4E98177
:10008200E17011F4C09801C0C09AE981E695E98354
:1000920022D00F5FF2CFC09A1ED008812296089517
:1000A200BA93AA930A9300E0E02F0F5F19D0A491AC
:1000B200DFDFE02F15D0E491E030B1F7088123961D
:1000C2000895C09AB89AAEE1B0E0EADFA8EEB3E0D4
:1000D2000DD0F9CFFFCF8CEC90E00197F1F70895A6
:1000E200A981BA81F0E0EA0FFB1F0895109639F05A
:1000F20080ED97E00197F1F7A8951197C9F7089558
:00000001FF
