:020000000C945E
:100002005B000C9400000C9400000C9400000C9413
:1000120000000C9400000C9400000C9400000C945E
:1000220000000C9400000C9400000C9400000C944E
:1000320000000C9400000C9400000C9400000C943E
:1000420000000C9400000C9400000C9400000C942E
:1000520000000C9400000C9400000C9400000C941E
:1000620000000C9400001027E80364000A0001005D
:100072000010000110000100FC60DBF366B7BEE176
:10008200FEF6EE3F9C7B9E8E4A6F7365204D616E3D
:1000920075656C204E6572692056696C6C65646189
:1000A200204130313730363435300D001000000336
:1000B2007A000000F894EE27EFBBF1E0F5BFE5BF50
:1000C2008DE0A2E0BB27ED938A95E9F780E098E006
:1000D200A0E0B1E0ED930197E9F7EEEAF0E0859157
:1000E2009591009761F0A591B59105901590BF018A
:1000F200F00105900D920197E1F7FB01F0CFE0E0EE
:10010200EEBBEFEFEDBFE8E0EEBFC0E0D3E00C9452
:10011200A500AA93E881E064E0937C008BE18A95D4
:10012200F1F7E0917A00E064E0937A00E0917A00DE
:10013200E071E1F3E0917A00E061E0937A00E0910E
:100142007800F09179007EC0E2E0E0937E00E0E486
:10015200E0937C00E6E8E0937A00E0E0E0937B0045
:10016200E093C000E8E1E093C100E6E0E093C20062
:10017200E1E0E093C500E0EAE093C400EAE8F0E0E1
:10018200FA93EA9380E0A1D12296569AE2E4E4BD82
:10019200E3E0E5BDE2EBE7BD3D9AE0E0E0938000FD
:1001A200EBE0E0938100E0E3E0938900E3EDE0938C
:1001B2008800E2E0E0936F007894459B02C0459886
:1001C20001C0459AEEEFE4B9A1E0A3DF3E2E4F2E27
:1001D2000E94A40218F4E0910003E5B90E94A4026F
:1001E20018F40E94B30218F4E0910103E5B90E94E9
:1001F200B30218F40E94C20218F4E0910203E5B9B6
:100202000E94C20218F40E94D10218F4E091030382
:10021200E5B90E94D10218F40E94E00218F4E091BC
:100222000403E5B90E94E00218F0E0910503E5B984
:10023200C9CFFFCFAA93E091C000E072E1F3E88159
:10024200E093C60021960895BA93AA93AA81F2DF99
:10025200A881B981ED91FD913196FE93EE9323969B
:100262000895BA93AA9326970E94930310E0AC854F
:10027200BD85E0E0F0E0ED93FC93EA89FB893196DD
:10028200EA8BFB8B3197E4912E2FE03009F415C1F4
:10029200E12FE03039F4253211F411E002C00E945E
:1002A200EF020AC1E130A9F4253219F40E94EF02EB
:1002B20002C112E040E000E02D3211F401E0FCC086
:1002C2002B3211F44BE2F8C0203211F440E2F4C0B8
:1002D20002C0E23039F450E013E0203311F4006838
:1002E200EBC003C0E33009F0E7C0203310F02A333B
:1002F20008F007C0AAE05A9F502DE22FE0535E0F8C
:10030200DBC0E22FE33649F40E94F602E889F9895C
:10031200A481AA930E94FC02CEC0E33741F40E945A
:10032200F6020E9402030E948B021E2F0AC0E037CF
:1003320061F40E94F6020E9402030E9497021E2F9D
:10034200086002600F7730E034C0E43611F0E9361D
:1003520011F4046002C0E53731F4E8E6F0E0EE8320
:10036200FF8315E00CC0E83511F4086003C0E837DC
:1003720009F0A1C0E2E7F0E0EE83FF8314E002FFA0
:1003820014C00E94F6020E940C03AB85AA233AF421
:10039200EA85FB850E947A03EA87FB874DE24030BB
:1003A20011F01F5F01C00B7F04C00E94F6020E9481
:1003B2000C0300FD11C0151778F407FF08C002FFF7
:1003C20004C00B7F242F115001C020E301C020E2A2
:1003D2000E94EF025150EFCF312F01FF17C0303092
:1003E200A1F003FF06C0EE81FF812591EE83FF831A
:1003F20005C0AE81BF812D91AE83BF830E94EF0203
:10040200503009F051503150EACF4BC020E3EE8119
:10041200FF810E948F03E887F987EE81FF81329680
:10042200EE83FF83E885F985AA85BB85AE17BF07F2
:1004320050F02F5FA885B985EA85FB85EA1BFB0B87
:10044200EA87FB87EFCF2A3328F003FF02C0295F38
:1004520001C0295D04FD1AC0213320F4A885B985A5
:10046200119709F409C0531710F000FF01C013C01F
:1004720020E207FF0BC020E3006102FF07C00B7FF1
:100482004A930E94FC02503009F051500E94EF0240
:10049200503009F051503150A885B985129708F0B3
:1004A200B5CF00FF08C0503031F05150E0E2EA937E
:1004B2000E94FC02F8CF10E0E0CEAC85BD850E9420
:1004C2008B030E949A0364960895FF92F82E269752
:1004D2001A930A93DE0114960E9476038D01E0E0DE
:1004E200EC83ED83EE83EF83DE0118960E947603A0
:1004F2000E948B03FA93EA931A930A93E5E2F1E0DE
:10050200FA93EA93DE011896ACDE198108812896E7
:10051200FF900895BA93AA93A991B991EE27FF2764
:100522006D91662311F03196FBCF0895BA93AA9389
:10053200AA27BB27E991F9910590002011F01196A5
:10054200FBCFFD010895E32DF42D0E9486030E9446
:100552002803DF01CB01E0E0F0E060E07FE30E94EE
:1005620056030895E32DF42D0E9486030E9428036A
:10057200DF01CB01E0E0F0E060EC7FE30E94560394
:100582000895E32DF42D0E9486030E942803DF01C3
:10059200CB01E0E0F0E060E270E40E9456030895CF
:1005A200E32DF42D0E9486030E942803DF01CB0174
:1005B200E0E0F0E060E670E40E9456030895E32D67
:1005C200F42D0E9486030E942803DF01CB01E0E0A4
:1005D200F0E060E970E40E94560308952A93AD8525
:1005E200BE85EF85F88909950895E889F9893497D8
:1005F200E88BF98B0895AD85BE85EF85F88909955D
:100602000895A889B98914960E948B03EE83FF830B
:10061200AE81BF810895A889B98914960E948B037F
:10062200EA87FB87089550E8572711F45F932BC0A0
:100632005F3F31F0660F000C57956795752F08954F
:100642005F9300200AF02BC024C0689401C0E89494
:10065200309760407040B1F0002426F0772312F406
:1006620000944BD0172E7EE1112032F07A95EE0FD6
:10067200FF1F661F111CF9CFEF2FF62F612D5F931D
:10068200D2DF5F910895EE27FF27662777275F91D4
:100692000895EFEFFFEF6FE77FEF5F910895EFEFC0
:1006A200FFEF6FE77FE75F91089599239AF0772331
:1006B20042F0971748F029F4AE17BF07860720F0DB
:1006C20031F0989488940895989408940895189411
:1006D200889408957723C2F7971798F3A9F7EA1732
:1006E200FB07680788F399F3ECCF0024AF0DB01D28
:1006F2000895F195E195F0400895F0956095709513
:10070200E195FF4F6F4F7F4F08956F2F660F660B76
:10071200762F0895ED91FC91119708950590F4912B
:10072200E02D08955A934A933A932A931A930A937F
:1007320008955D814C813B812A8119810881089548
:00000001FF
