:100000000C9434000C9400000C9400000C9400003C
:100010000C9400000C9400000C9400000C94000060
:100020000C9400000C9400000C9400000C94000050
:100030000C9400000C9400000C9400000C94000040
:100040000C9400000C9400000C9400000C94000030
:100050000C9400000C9400000C9400000C94000020
:100060000C9400000C940000F894EE27EFBBF1E034
:10007000F5BFE5BF8DE0A2E0BB27ED938A95E9F7D8
:1000800080E098E0A0E0B1E0ED930197E9F7E0E0CF
:10009000EEBBEFEFEDBFE8E0EEBFC0E0D3E00C94C5
:1000A00051000FEF0AB900E308B911271124F0E05D
:1000B000E4EFE10FF11DC8950BB80FD03599FECFD5
:1000C000349905C013951A3091F71127F0CF1030ED
:1000D00011F01A95ECCF1AE0FACFF3ECECE10290B4
:1000E00000000000000000000000F030C1F7E03028
:1000F000B1F70895FC60DBF366B7BEE1FEF6FFCF13
:00000001FF
