:040000000C947200EA
:100004000C9400000C9400000C9400000C9400006C
:100014000C9400000C9400000C9400000C9400005C
:100024000C9400000C9400000C9400000C9400004C
:100034000C9400000C9400000C9400000C9400003C
:100044000C9400000C9400000C9400000C9400002C
:100054000C9400000C9400000C9400000C9400001C
:100064000C9400000C9400000C9400000C9400000C
:100074000C9400000C9400000C9400000C940000FC
:100084000C9400000C9400000C9400000C940000EC
:100094000C9400000C9400000C9400000C940000DC
:1000A4000C9400000C9400000C9400000C940000CC
:1000B4000C9400000C9400000C9400000C940000BC
:1000C4000C9400000C9400000C9400000C940000AC
:1000D4000C9400000C9400000C9400000C9400009C
:1000E400F894EE27EFBBF1E0F5BFE5BFE0937400B1
:1000F400E09375008DE0A2E0BB27ED938A95E9F7C4
:1001040080E090E2A0E0B2E0ED930197E9F78BBFC5
:100114008CBFE0E0EEBBEFEFEDBFE1E2EEBFC0E08D
:10012400D4E00C949500279A2F9AA0E8B1ED06D05C
:100134002F98AFE0B0E002D0F7CFFFCF109639F0A0
:10014400A8958AEF90E00197F1F71197C9F7089500
:00000001FF
