:0C0000000C9434000C9400000C940000E0
:10000C000C9400000C9400000C9400000C94000064
:10001C000C9400000C9400000C9400000C94000054
:10002C000C9400000C9400000C9400000C94000044
:10003C000C9400000C9400000C9400000C94000034
:10004C000C9400000C9400000C9400000C94000024
:10005C000C9400000C9400000C940000F894EE2713
:10006C00EFBBF1E0F5BFE5BF8DE0A2E0BB27ED9360
:10007C008A95E9F780E098E0A0E0B1E0ED93019774
:10008C00E9F7E0E0EEBBEFEFEDBFE8E0EEBFC0E07C
:10009C00D3E00C945100E0E8E0936100E0E0E093E1
:1000AC006100589A569AE2E4E4BDE2E0E5BDEBE962
:1000BC00E7BD219AE0E4E0938000E9E0E093810061
:1000CC00E1E0E0938900EFE8E0938800239AE2E412
:1000DC00E093B000E2E0E093B100E6E2E093B3001D
:1000EC00489902C0E2E001C0E0E0E5BDF9CFFFCFE6
:00000001FF
