:0E0000000C94B9000C9400000C9400000C94B9
:10000E0000000C9400000C9400000C9400000C9462
:10001E0000000C9400000C9400000C9400000C9452
:10002E0000000C9400000C9400000C9400000C9442
:10003E0000000C9400000C9400000C9400000C9432
:10004E0000000C9400000C9400000C9400000C9422
:10005E0000000C9400000C9400000C9400000C9412
:10006E0000000C9400000C9400000C9400000C9402
:10007E0000000C9400000C9400000C9400000C94F2
:10008E0000000C9400000C9400000C9400000C94E2
:10009E0000000C9400000C9400000C9400000C94D2
:1000AE0000000C9400000C9400000C9400000C94C2
:1000BE0000000C9400000C9400000C9400000C94B2
:1000CE0000000C9400000C9400000C9400000C94A2
:1000DE0000000C940000EE011000DC031000E4029E
:1000EE0010006E021000DC032000E402F0FF6E022E
:1000FE0008000B0210001704100020061000270540
:10010E001000170420002006F0FF27050800EE015E
:10011E001000DC031000E40210006E021000DC037D
:10012E002000E402F0FF6E0208006E02200093022F
:10013E002000BA022000BA022000E40220001003C0
:10014E002000100320003F03200070031000DC038A
:10015E0008001F00E4000100000460010100020419
:10016E0062010000F894EE27EFBBF1E0F5BFE5BFAA
:10017E00E0937400E09375008DE0A2E0BB27ED9351
:10018E008A95E9F780E090E2A0E0B2E0ED93019766
:10019E00E9F7E4E6F1E085919591009761F0A5917C
:1001AE00B59105901590BF01F00105900D92019744
:1001BE00E1F7FB01F0CF8BBF8CBFE0E0EEBBEFEFC2
:1001CE00EDBFE1E2EEBFC0E0D4E00C942F010CD104
:1001DE0024971A930A93259AEE81FF816885798573
:1001EE00A0E0B4E284EF98E44DD2EA83FB836C8303
:1001FE007D833DD18F01AA81BB818C819D81662734
:10020E0077276ED1F6D09FD1DF01CB01E0E0F0E091
:10021E0060E07FE37BD210F00F5F1F4FE0E4E093CE
:10022E008000E9E0E0938100F8013197EF2FF0E0D4
:10023E00E0938900E02FE150E09388001981088156
:10024E002A960895E0E0E0938000E09381000895FF
:10025E00409AE0E8E0936100E4E0E09361002297C9
:10026E00E0E0E883E983E0910004F0910104EE0FF1
:10027E00FF1FA881B981AE17BF0708F04BC0E881F8
:10028E00F981EE0FFF1FEA51FF4FAAD046D0A09181
:10029E000404B0910504BAD01CF444D048D016C062
:1002AE00A0910504AA2392F43DD0AFEFBFEF6DD01D
:1002BE0034D038D03CD045D0A0E0B0E080EC9FE305
:1002CE0093D1A6E0B4E0D5D0ED93FC9340991CC039
:1002DE00E881F981A4EEB0E0EE0FFF1FEA0FFB1FDD
:1002EE007FD046D0FDD0DF01CB0171DF2AD0A6E64C
:1002FE00B6E686E69FE32CD0A5DF23D0ADECBCECB2
:10030E008CEC9DE325D0E2CFE881F9813296E8832B
:10031E00F983A9CF2296A3CFFFCFE0930404F093E5
:10032E0005040895E0910404F09105040895A09148
:10033E000204B091030441D0E0930604F093070445
:10034E000895E0910604F091070412D0C9D00895E3
:10035E004BD18DD0DF01FAC1F195E195F0400895B2
:10036E00F09560957095E195FF4F6F4F7F4F089513
:10037E006F2F660F660B762F0895FA9FF02DEB9F69
:10038E00F00DEA9FE02DF10D08951CD0F6DF0EF46E
:10039E00E3DF08950024112490E1AA0FBB1F001C77
:1003AE00111C0E1A1F0A18F40E0E1F1E01C0A1609A
:1003BE009A9599F7FD01D001089504D0EBDF0EF464
:1003CE00CBDF0895E894F7FF02C0C6DF6894B7FF4D
:1003DE0006C0B195A195B04000F8039400FA0895B7
:1003EE000590F491E02D08959A938A93BA93AA9367
:1003FE000895182E862F612D192E972F712D1B2ED5
:10040E00BF2FF12D1A2EAE2FE12D089500240A16BE
:10041E000B060895552342F4503811F4E0FF04C042
:10042E003196691F791F6BF050E8572711F45F93CF
:10043E00CAC05F3F31F0660F000C57956795752F58
:10044E0008955F9300200AF0C9C0C2C050E8192E6B
:10045E001522880F991F9527550F879550E8072E5F
:10046E000522660F771F7527550F679508956894B7
:10047E0001C0E8945F93F2DF703818F07F3F08F404
:10048E00A2C056E1571BAAF4519558300EF45930BC
:10049E0030F0EFEFFFEF6FEF7FE777F91AC07727B6
:1004AE005523B9F0EE0FFF1F661F771F5A95D1F730
:1004BE0010C07727583028F0EF2FF62F672F58509F
:1004CE00F9CF552331F076956795F795E7955A95BF
:1004DE00D1F700200AF444DF5F910895689401C0BB
:1004EE00E894309760407040B1F0002426F07723F6
:1004FE0012F4009435DF172E7EE1112032F07A953A
:10050E00EE0FFF1F661F111CF9CFEF2FF62F612D77
:10051E005F938ADF5F9108954F93AF01FD01DA017A
:10052E00AB01BC01CA01402D012C142E4F91089530
:10053E00EA0FFB1F681F0895E095F0956095EF5F39
:10054E00FF4F6F4F08955F9381DF903849F150E868
:10055E001526703821F1572F591B2BF112F4DCDFC1
:10056E00FACF583118F0AA27BB278827583028F021
:10057E00AB2FB82F88275850F9CF552329F08695E1
:10058E00B795A7955A95D9F7502D512572F0D0DF12
:10059E0038F46795F795E795739513F41FC0BCDF94
:1005AE0043DF5F910895D8F7FBCFEA1BFB0B680B77
:1005BE0051F010F40094C0DF662392F3EE0FFF1F8C
:1005CE00661F7A95CBF7EE27FF27BF015F9108953F
:1005DE00EFEFFFEF6FE77FEF5F910895EFEFFFEF24
:1005EE006FE77FE75F9108955F9330DF703859F3BF
:1005FE00903849F301240894791F23F424F3002042
:10060E003AF3ECCF0F921F932F933F934F931127F3
:10061E0022279927689FA0018F9F302D410D591FCA
:10062E006B9F300D411D591F8E9F27D0BF9F25D028
:10063E006A9F23D0BE9F1DD0AF9F1BD0AE9F110DC2
:10064E00291F391F491F591FE32FF42F652F522FD2
:10065E004F913F912F911F910F9066232AF0550FC6
:10066E00EE1FFF1F661F02C073954BF2D3DE5F9124
:10067E000895100D211D391F02C0200D311D491F77
:10068E00591F08955F93E2DE703821F411200AF4A9
:10069E009FCFA4CF903809F496CF01240894970BDE
:1006AE001BF4D4F30020F3CF792F1F932F933F9396
:1006BE004F931124112722273327A90190E2AE1759
:1006CE00BF078607410730F0AE1BBF0B860B410BF1
:1006DE00089401C08894551F221F331F111CAA1F96
:1006EE00BB1F881F441F9A9551F7F901612D4F9139
:1006FE003F912F911F91662332F0550FEE1FFF1F72
:10070E00661F7A954BF286DE5F91089599239AF0D3
:10071E00772342F0971748F029F4AE17BF078607E4
:10072E0020F031F098948894089598940894089540
:10073E001894889408957723C2F7971798F3A9F71A
:10074E00EA17FB07680788F399F3ECCF109639F098
:10075E00A89580EA9FE00197F1F71197C9F70895E0
:00000001FF
