:060000000C944F000C946B
:1000060000000C9400000C9400000C9400000C946A
:1000160000000C9400000C9400000C9400000C945A
:1000260000000C9400000C9400000C9400000C944A
:1000360000000C9400000C9400000C9400000C943A
:1000460000000C9400000C9400000C9400000C942A
:1000560000000C9400000C9400000C9400000C941A
:1000660000001027E80364000A00010000100001E8
:1000760010000100486F6C61204D756E646F210D94
:1000860000204553204E554D45524F0D00204553F7
:10009600204F54524F0D0000F894EE27EFBBF1E0CD
:1000A600F5BFE5BF8DE0A2E0BB27ED938A95E9F7A2
:1000B60080E098E0A0E0B1E0ED930197E9F7E0E099
:1000C600EEBBEFEFEDBFE8E0EEBFC0E0D3E00C948F
:1000D6006C00E2E0E093C000E8E1E093C100E6E0F6
:1000E600E093C200E0E0E093C500ECE0E093C400DA
:1000F600EAE7F0E0FA93EA9380E069D1229615D018
:10010600E0930003A0910003A03310F0AA3308F097
:1001160003C0E7E8F0E002C0E3E9F0E0FA93EA930F
:1001260080E055D12296EBCFFFCFE091C000E0787A
:10013600E1F3E091C6000895AA93E091C000E07251
:10014600E1F3E881E093C60021960895BA93AA9355
:10015600AA81F2DFA881B981ED91FD913196FE93D6
:10016600EE9323960895BA93AA9326970E945D026A
:1001760000E0AC85BD85E0E0F0E0ED93FC93EA8914
:10018600FB893196EA8BFB8B3197E4913E2FE03069
:1001960009F415C1E02FE03039F4353211F401E0ED
:1001A60002C00E9428020AC1E130A9F4353219F4CE
:1001B6000E94280202C102E050E010E03D3211F434
:1001C60011E0FCC03B3211F45BE2F8C0303211F4AE
:1001D60050E2F4C002C0E23039F440E003E03033CC
:1001E60011F41068EBC003C0E33009F0E7C0303308
:1001F60010F03A3308F007C0AAE04A9F402DE32FDB
:10020600E0534E0FDBC0E32FE33649F40E942F0282
:10021600E889F989A481AA930E943502CEC0E33702
:1002260041F40E942F020E943B020E940F020E2FF1
:100236000AC0E03761F40E942F020E943B020E942E
:100246001B020E2F186012601F7720E034C0E436C0
:1002560011F0E93611F4146002C0E53731F4E8E62E
:10026600F0E0EE83FF8305E00CC0E83511F418607A
:1002760003C0E83709F0A1C0E2E7F0E0EE83FF83B0
:1002860004E012FF14C00E942F020E944502AB85B3
:10029600AA233AF4EA85FB850E945102EA87FB8786
:1002A6005DE2503011F00F5F01C01B7F04C00E9459
:1002B6002F020E94450210FD11C0041778F417FFA3
:1002C60008C012FF04C01B7F352F015001C030E368
:1002D60001C030E20E9428024150EFCF202F11FFCB
:1002E60017C02030A1F013FF06C0EE81FF813591C3
:1002F600EE83FF8305C0AE81BF813D91AE83BF8390
:100306000E942802403009F041502150EACF4BC0EC
:1003160030E3EE81FF810E945902E887F987EE817A
:10032600FF813296EE83FF83E885F985AA85BB8532
:10033600AE17BF0750F03F5FA885B985EA85FB85F4
:10034600EA1BFB0BEA87FB87EFCF3A3328F013FF54
:1003560002C0395F01C0395D14FD1AC0313320F483
:10036600A885B985119709F409C0421710F010FF46
:1003760001C013C030E217FF0BC030E3106112FF5B
:1003860007C01B7F5A930E943502403009F0415046
:100396000E942802403009F041502150A885B985B5
:1003A600129708F0B5CF10FF08C0403031F0415029
:1003B600E0E2EA930E943502F8CF00E0E0CEAC8599
:1003C600BD850E9455020E94640264960895FF92BC
:1003D600F82E26971A930A93DE0114960E944D0270
:1003E6008D01E0E0EC83ED83EE83EF83DE0118966A
:1003F6000E944D020E945502FA93EA931A930A93B9
:10040600E9EAF0E0FA93EA93DE011896ACDE198188
:1004160008812896FF900895BA93AA93A991B99155
:10042600EE27FF276D91662311F03196FBCF0895D5
:10043600BA93AA93AA27BB27E991F99105900020C0
:1004460011F01196FBCFFD0108953A93AD85BE8557
:10045600EF85F88909950895E889F9893497E88B35
:10046600F98B0895AD85BE85EF85F88909950895C0
:10047600A889B98914960E945502EE83FF83AE813E
:10048600BF810895A889B98914960E945502EA8702
:10049600FB8708950024AF0DB01D0895F195E195F1
:1004A600F0400895ED91FC91119708950590F4910F
:1004B600E02D08955A934A933A932A931A930A93EE
:1004C60008955D814C813B812A81198108810895B7
:00000001FF
