:100000000C9434000C9400000C9400000C9400003C
:100010000C9400000C9400000C9400000C94000060
:100020000C9400000C9400000C9400000C94000050
:100030000C9400000C9400000C9400000C94000040
:100040000C9400000C9400000C9400000C94000030
:100050000C9400000C9400000C9400000C94000020
:100060000C9400000C940000F894EE27EFBBF1E034
:10007000F5BFE5BF8DE0A2E0BB27ED938A95E9F7D8
:1000800080E098E0A0E0B1E0ED930197E9F7E0E0CF
:10009000EEBBEFEFEDBFE8E0EEBFC0E0D3E00C94C5
:1000A00051000FEF0AB90FE008B900270BB916B1DC
:1000B0001F701030F1F01130F1F01230F1F0133008
:1000C000F1F01430F1F01530F1F01630F1F0173096
:1000D000F1F01830F1F01930F1F01A30F1F01B3076
:1000E000F1F01C30F1F01D30F1F01E30F1F00EE8AF
:1000F000DDCF0CEFDBCF00E6D9CF0BEDD7CF03EF91
:10010000D5CF06E6D3CF07EBD1CF0EEBCFCF01EEA5
:10011000CDCF0EEFCBCF06EFC9CF0EEEC7CF0FE39B
:10012000C5CF0CE9C3CF0BE7C1CF0EE9BFCFFFCFDF
:00000001FF
