:100000000C9466000C9400000C9400000C9400000A
:100010000C9400000C9400000C9400000C94000060
:100020000C9400000C9400000C9400000C94000050
:100030000C9400000C9400000C9400000C94000040
:100040000C9400000C9400000C9400000C94000030
:100050000C9400000C9400000C9400000C94000020
:100060000C9400000C94000080889098A0A7AFB674
:10007000BDC4CBD1D7DDE2E7EBEFF3F6F9FBFDFE34
:10008000FFFFFFFEFDFBF9F6F3EFEBE7E2DDD7D173
:10009000CBC4BDB6AFA7A09890888078706860592F
:1000A000514A433C352F29231E1915110D0A070506
:1000B0000302010101020305070A0D1115191E2390
:1000C000292F353C434A515960687078F894EE27DF
:1000D000EFBBF1E0F5BFE5BF8DE0A2E0BB27ED93FC
:1000E0008A95E9F780E098E0A0E0B1E0ED93019710
:1000F000E9F7E0E0EEBBEFEFEDBFE8E0EEBFC0E018
:10010000D3E00C948300E0E8E0936100E0E0E0934A
:100110006100569AE3E8E4BDE1E0E5BDE0E0E0938C
:100120000003A0910003A43688F4E0910003F0E0FE
:10013000E859FF4F049007BC82EC90E00197F1F77B
:10014000E0910003EF5FE0930003EBCFE7CFFFCF39
:00000001FF
