:060000000C9490000C942A
:1000060000000C9400000C9400000C9400000C946A
:1000160000000C9400000C9400000C9400000C945A
:1000260000000C9400000C9400000C9400000C944A
:1000360000000C9400000C9400000C9400000C943A
:1000460000000C9400000C9400000C9400000C942A
:1000560000000C9400000C9400000C9400000C941A
:1000660000000C9400000C9400000C9400000C940A
:1000760000000C9400000C9400000C9400000C94FA
:1000860000000C9400000C9400000C9400000C94EA
:1000960000000C9400000C9400000C9400000C94DA
:1000A60000000C9400000C9400000C9400000C94CA
:1000B60000000C9400000C9400000C9400000C94BA
:1000C60000000C9400000C9400000C9400000C94AA
:1000D60000000C9400000C9400000C940000102703
:1000E600E80364000A00010000100001100001008E
:1000F60003030302020C0008000100062575002513
:1001060000436F756E7465725769736500436C6F53
:10011600636B5769736520200000F894EE27EFBBE8
:10012600F1E0F5BFE5BFE0937400E09375008DE064
:10013600A2E0BB27ED938A95E9F780E090E2A0E084
:10014600B2E0ED930197E9F78BBF8CBFE0E0EEBB21
:10015600EFEFEDBFE1E2EEBFC0E0DAE00C947E0126
:100166002C978CE060E070E0E6EFF0E0F4D20A93C2
:10017600099A089A0A9A0B9A0C9A0D9AA2E3B0E089
:1001860035D300E00C3070F4A2E0B0E02FD3E02FBE
:10019600F0E0DE011196AE0FBF1FAC910FD00BD071
:1001A6000F5FF0CFECE0E093000AA091000A1DD0AB
:1001B60008812D960895119A119808950A930A2F89
:1001C60003FF02C0159A01C0159802FF02C0149AD7
:1001D60001C0149801FF02C0139A01C0139800FFD2
:1001E60002C0129A01C0129884C01A930A931A2F59
:1001F600109804C01A930A931A2F109AA2E0B0E03E
:10020600F5D2E12FE07F0E2F02950F70A02FD6DFDB
:10021600D2DFE12FEF700E2FA02FD0DFA2E0B0E0EB
:10022600E5D2C9DF09911991089555D259D2A49101
:10023600E1DFE02FF0E0E10FF21FE491E030B1F7EB
:1002460086D230C048D24CD2A081D4DFA12FB22FA3
:10025600EE27A00FBE1FEC91E030A9F778D222C09E
:100266001A930A930A2F1A81E02FF0E0309719F4B7
:10027600A12FA05814C0E130A0E0FA0719F4A12F6D
:10028600A0540DC0E230A0E0FA0719F4A12FAC5635
:1002960006C0E330A0E0FA0719F4A12FAC52A5DF9F
:1002A60019810881239608950A930A2FE02FEF718A
:1002B600E066E0937C0005FF04C0E0917B00E86007
:1002C60003C0E0917B00E77FE0937B0083E08A95A3
:1002D600F1F7E0917A00E064E0937A00E0917A0029
:1002E600E071E1F3E0917A00E061E0937A00E09159
:1002F600790009910895E0E8E0936100E4E0E09375
:1003060061002EDFE1E0E0937E00E0E0E0937D0017
:10031600E0E6E0937C00E4E8E0937A00E0E0E09336
:100326007B00E0EEE4B9409AE1E8E4BDE1E0E5BD3A
:10033600E7B5A4E6EA9FF001DF01EFEFF0E036D281
:10034600E093010AE2E0FAE0FA93EA93E2E0F1E0F0
:10035600FA93EA93E091010AFF276627772741D2AD
:1003660084E06FD12896E4E0EA93A1E079DFA2E089
:10037600BAE068DFA5E0B1E058DF309B06C02E98F2
:100386002D9AB4D1A7E0B1E005C02E9A2D98AED132
:10039600A3E1B1E04ADFA0E087DFE7BDC9CFFFCF29
:1003A600CDD19D014D81129614D23097E1F0D9013D
:1003B60014960FD28F01309759F00230E0E01E07F5
:1003C60060F0F80131978F01D9011496ED93FC93F3
:1003D600D90112968FD131974083D901FAD1FF23E3
:1003E6000AF088D105C0D901EFEFFFEFED93FC933A
:1003F600ACD126960895BA93AA9326979ED100E08B
:10040600AC85BD85E0E0F0E0ED93FC93EA89FB89DD
:100416003196EA8BFB8B3197E4913E2FE03009F45D
:1004260009C1E02FE03031F4353211F401E001C0AA
:1004360067D1FFC0E130A1F4353211F461D1F8C0C3
:1004460002E050E010E03D3211F411E0F2C03B3220
:1004560011F45BE2EEC0303211F450E2EAC002C0A1
:10046600E23039F440E003E0303311F41068E1C0C3
:1004760003C0E33009F0DDC0303310F03A3308F042
:1004860007C0AAE04A9F402DE32FE0534E0FD1C08C
:10049600E32FE33639F43BD1E889F989A481AA939D
:1004A6003CD1C6C0E33729F432D13DD1FBD00E2F63
:1004B60007C0E03749F42BD136D100D10E2F186092
:1004C60012601F7720E038C0E43611F0E93611F4E7
:1004D600146002C0E53731F4E4EEF0E0EE83FF830A
:1004E60005E00CC0E83511F4186003C0E83709F0E0
:1004F6009FC0EEEEF0E0EE83FF8304E012FF15C02E
:1005060006D1A889B9891496ED91FD91EA87FB87F2
:10051600AB85AA2322F433D1EA87FB875DE250300C
:1005260011F00F5F01C01B7F07C0F1D0A889B98900
:1005360014964FD1EA87FB8710FD10C0041770F49C
:1005460017FF08C012FF04C01B7F352F015001C0E2
:1005560030E301C030E2D4D04150F0CF202F11FF5C
:1005660016C0203099F013FF06C0EE81FF81359149
:10057600EE83FF8305C0AE81BF813D91AE83BF830D
:10058600BFD0403009F041502150EBCF48C030E396
:10059600EE81FF8122D1E887F987EE81FF813296CD
:1005A600EE83FF83E885F985AA85BB85AE17BF076D
:1005B60050F03F5FA885B985EA85FB85EA1BFB0BF2
:1005C600EA87FB87EFCF3A3328F013FF02C0395F83
:1005D60001C0395D14FD19C0313320F4A885B985F1
:1005E600119709F409C0421710F010FF01C011C09D
:1005F60030E217FF0AC030E3106112FF06C01B7F0E
:100606005A938BD0403009F041507AD0403009F0EF
:1006160041502150A885B985129708F0B8CF10FF30
:1006260007C0403029F04150E0E2EA9376D0F9CF96
:1006360000E0ECCEAC85BD85ED91FD9185D064964C
:100646000895FF92F82E269778D0FE0190D0468521
:100656005785042E052A19F4EFEFFFEF1FC0DE01C0
:10066600189689D08D0148875987E0E0EA87EB879D
:10067600DE011C9680D0ED91FD91FA93EA931A93D0
:100686000A93E3EDF1E0FA93EA93DE011C96B3DEFA
:100696009F01A885B985E0E0EC93F90155D02C9629
:1006A600FF900895BA93AA93A991B991EE27FF27CF
:1006B6006D91662311F03196FBCF0895BA93AA93F4
:1006C600AA27BB27E991F9910590002011F0119610
:1006D600FBCFFD01089534D01A2F2B2F00E008958B
:1006E600E02F0F5FF0E0E10FF21F0895E0E0EA93DC
:1006F600A0E0B6CDED91FD913196FE93EE9308956F
:100706003A93AD85BE85EF85F88909950895E88900
:10071600F9893497E88BF98B0895AD85BE85EF8509
:10072600F88909950895A889B9891496ED91FD91DE
:10073600EE83FF83AE81BF8108955A934A933A931D
:100746002A931A930A9308955D814C813B812A81ED
:10075600198108810895AF93BF93DB01AC0FBD1FCC
:1007660005900D928A95E1F7BF91AF910895002407
:10077600EF0DF01D08950024AF0DB01D0895F195FD
:10078600E195F04008950024112490E1AA0FBB1FC3
:10079600001C111C0E1A1F0A18F40E0E1F1E01C093
:1007A600A1609A9599F7FD01D001089504D0EBDF79
:1007B6000EF4E5DF0895E894F7FF02C0E0DF6894E1
:1007C600B7FF06C0B195A195B04000F8039400FAB2
:1007D6000895ED91FC91119708950590F491E02DFF
:1007E60008957A936A93FA93EA930895109639F0E6
:1007F600A8958AEF90E00197F1F71197C9F7089548
:00000001FF
