:060000000C9434000C9486
:1000060000000C9400000C9400000C9400000C946A
:1000160000000C9400000C9400000C9400000C945A
:1000260000000C9400000C9400000C9400000C944A
:1000360000000C9400000C9400000C9400000C943A
:1000460000000C9400000C9400000C9400000C942A
:1000560000000C9400000C9400000C9400000C941A
:100066000000F894EE27EFBBF1E0F5BFE5BF8DE0A9
:10007600A2E0BB27ED938A95E9F780E098E0A0E03F
:10008600B1E0ED930197E9F7E0E0EEBBEFEFEDBFEE
:10009600E8E0EEBFC0E0D3E00C947700239A249A00
:1000A600259A0895AA935881662757FD2C9A57FFDB
:1000B6002C982B9A2B98550F63956830B1F72D9A8B
:1000C6002D9821960895229A219A08957727EE274A
:1000D600299AEE0FF1E01899EF2B2A9A2A98739530
:1000E6007830B9F7299808950E9451000E94660059
:1000F6000E9469000E2FA02F0E945500F9CFFFCF56
:00000001FF
