:0C0000000C944F000C9400000C940000C5
:10000C000C9400000C9400000C9400000C94000064
:10001C000C9400000C9400000C9400000C94000054
:10002C000C9400000C9400000C9400000C94000044
:10003C000C9400000C9400000C9400000C94000034
:10004C000C9400000C9400000C9400000C94000024
:10005C000C9400000C9400000C94000003030302A9
:10006C00020C000800010006000A15110A041F000A
:10007C001F001F001F004D6963726F730052756C77
:10008C0065732100060000037400070008037A0062
:10009C000000F894EE27EFBBF1E0F5BFE5BFF8E107
:1000AC00A895A4B7A77FA4BFF0936000E09360006D
:1000BC008DE0A2E0BB27ED938A95E9F780E098E00C
:1000CC00A0E0B1E0ED930197E9F7E0E9F0E085916C
:1000DC009591009761F0A591B59105901590BF0190
:1000EC00F00105900D920197E1F7FB01F0CFE0E0F4
:1000FC00EEBBEFEFEDBFE8E0EEBFC0E0D3E00C9459
:10010C003E012C978CE0A0E0B0E0E8E6F0E007D1EF
:10011C001A93219A209A229A239A249A259AA2E336
:10012C00B0E004D110E01C3070F4A2E0B0E0FED0DE
:10013C00E12FF0E0DE011196AE0FBF1FAC910DD098
:10014C0009D01F5FF0CFECE05E2EA52D21D01881D9
:10015C002D960895299A29980895AA93E881E87014
:10016C0011F02D9A01C02D98E881E47011F02C9AB1
:10017C0001C02C98E881E27011F02B9A01C02B98E9
:10018C00E881E17011F02A9A01C02A98219608950D
:10019C00AA931A9328989CD041C0AA931A93289A90
:1001AC0097D03CC0ABD0E12F1F5FADD0A491F5DF51
:1001BC00E12FA9D0E491E030B1F71881239608958E
:1001CC009DD0E12F1F5FA5D0A491E7DFA981BA8153
:1001DC00ADD0E12F9ED0E491E03099F718812596AF
:1001EC000895AA93E881F0E0309719F4A981A058FA
:1001FC0014C0E130A0E0FA0719F4A981A0540DC095
:10020C00E230A0E0FA0719F4A981AC5606C0E3303D
:10021C00A0E0FA0719F4A981AC52BADF229608952E
:10022C00E2E05E2A07C0EDEF04C0E1E05E2A02C006
:10023C00EEEF5E22A52DACDF0895BA93AA931A9324
:10024C00EB81EE0FEE0FEE0FE05CAE2FA1DF10E0B6
:10025C00183048F4A981BA81EE27A10FBE1FAC91CA
:10026C009CDF1F5FF5CFA0E893DF188124960895DB
:10027C0048DFE0E0EA93A0E0B3E0DFDFE1E0EA93FF
:10028C00A8E0B3E0DADFE5E0EA93A0E0AADFA2E8B9
:10029C00B0E088DFE5E0EA93A1E0A3DFE9E8F0E075
:1002AC00FA93EA93A6E9B0E08BDFBADFA8EBBBE0E8
:1002BC003DD0B9DFA8EBBBE039D0B7DFA8EBBBE092
:1002CC0035D0B6DFA0E069DFA1E067DFFFCFFFCF5D
:1002DC00A2E0B0E02BD0E981E07F1E2F12951F70B9
:1002EC00A12F3BDF37DFE981EF701E2FA12F35DF08
:1002FC00A2E0B0E01BD02EDF18810895BA93AA9328
:10030C001A9310E00895A981BA81F0E0EA0FFB1F5F
:10031C000895AB81BC81F0E0EA0FFB1F0895AC0F90
:10032C00BD1F05900D928A95E1F70895109639F04E
:10033C00A8958AEF90E00197F1F71197C9F7089506
:00000001FF
