:020000000C945E
:1000020090000C9400000C9400000C9400000C94DE
:1000120000000C9400000C9400000C9400000C945E
:1000220000000C9400000C9400000C9400000C944E
:1000320000000C9400000C9400000C9400000C943E
:1000420000000C9400000C9400000C9400000C942E
:1000520000000C9400000C9400000C9400000C941E
:1000620000000C9400000C9400000C9400000C940E
:1000720000000C9400000C9400000C9400000C94FE
:1000820000000C9400000C9400000C9400000C94EE
:1000920000000C9400000C9400000C9400000C94DE
:1000A20000000C9400000C9400000C9400000C94CE
:1000B20000000C9400000C9400000C9400000C94BE
:1000C20000000C9400000C9400000C9400000C94AE
:1000D20000000C9400000C9400000C9400000C949E
:1000E20000001027E80364000A000100001000016C
:1000F20010000100FA0003030302020C00080001D1
:1001020000065469656D706F20656E205365670047
:1001120025752020200001000300F6000000F8945D
:10012200EE27EFBBF1E0F5BFE5BFE0937400E0938B
:1001320075008DE0A2E0BB27ED938A95E9F780E098
:1001420090E2A0E0B2E0ED930197E9F7E8E1F1E097
:1001520085919591009761F0A591B59105901590C3
:10016200BF01F00105900D920197E1F7FB01F0CF7D
:100172008BBF8CBFE0E0EEBBEFEFEDBFE1E2EEBF85
:10018200C0E0D4E00C946B012C978CE060E070E04E
:10019200E8EFF0E096D21A93399A389A3A9A3B9A53
:1001A2003C9A3D9AA2E3B0E0B1D210E01C3070F468
:1001B200A2E0B0E0ABD2E12FF0E0DE011196AE0F8B
:1001C200BF1FAC910DD009D01F5FF0CFECE04E2ED7
:1001D200A42D1ED018812D960895419A4198089514
:1001E2001A931A2F13FF02C0459A01C0459812FFB5
:1001F20002C0449A01C0449811FF02C0439A01C050
:10020200439810FF02C0429A01C042981991089582
:100212001A930A930A2F409804C01A930A930A2F3A
:10022200409AA2E0B0E072D2E02FE07F1E2F12953A
:100232001F70A12FD5DFD1DFE02FEF701E2FA12F6E
:10024200CFDFA2E0B0E062D2C8DF09911991089530
:100252002CD29D0110E0FED1A491DFDFE12FF0E06E
:10026200E20FF31FE491E030B1F70DC01ED29D0101
:1002720010E0F0D1A081D1DFD901EE27A10FBE1F7E
:10028200EC91E030B1F718D2249608951A930A93AC
:100292001A2F0A81E12FF0E0309719F4A02FA0580D
:1002A20014C0E130A0E0FA0719F4A02FA0540DC049
:1002B200E230A0E0FA0719F4A02FAC5606C0E330F2
:1002C200A0E0FA0719F4A02FAC52A2DF198108812D
:1002D2002396089559DFE0E0EA93A0E0D7DFA4E097
:1002E200B1E0B6DFE0E0F4E0FA93EA93E2E1F1E0B4
:1002F200FA93EA93E32DFF276627772702D284E059
:100302005FD12896E0E0EA93A1E0C0DFA0E0B4E08C
:10031200ADDF3394A8EEB3E0F9D1E4CFFFCFC3D180
:100322009D015E811296E5D13097E1F0D9011496D4
:10033200E0D18F01309759F00230E0E01E0760F003
:10034200F80131978F01D9011496ED93FC93D901ED
:10035200129686D131975083D901CBD1FF230AF06F
:100362007FD105C0D901EFEFFFEFED93FC93A2D14E
:1003720027960895BA93AA93269795D110E0AC8553
:10038200BD85E0E0F0E0ED93FC93EA89FB893196CC
:10039200EA8BFB8B3197E4912E2FE03009F409C1EF
:1003A200E12FE03031F4253211F411E001C05ED1C9
:1003B200FFC0E130A1F4253211F458D1F8C012E0A7
:1003C20040E000E02D3211F401E0F2C02B3211F4D2
:1003D2004BE2EEC0203211F440E2EAC002C0E23049
:1003E20039F450E013E0203311F40068E1C003C097
:1003F200E33009F0DDC0203310F02A3308F007C0E3
:10040200AAE05A9F502DE22FE0535E0FD1C0E22F97
:10041200E33639F432D1E889F989A481AA9333D138
:10042200C6C0E33729F429D134D1FBD01E2F07C02F
:10043200E03749F422D12DD100D11E2F086002608D
:100442000F7730E038C0E43611F0E93611F4046079
:1004520002C0E53731F4E4EEF0E0EE83FF8315E00D
:100462000CC0E83511F4086003C0E83709F09FC0FA
:10047200EEEEF0E0EE83FF8314E002FF15C0FDD044
:10048200A889B9891496ED91FD91EA87FB87AB851E
:10049200AA2322F42AD1EA87FB874DE2403011F0E9
:1004A2001F5F01C00B7F07C0E8D0A889B9891496E5
:1004B20020D1EA87FB8700FD10C0151770F407FFF3
:1004C20008C002FF04C00B7F242F115001C020E39B
:1004D20001C020E2CBD05150F0CF312F01FF16C026
:1004E200303099F003FF06C0EE81FF812591EE8343
:1004F200FF8305C0AE81BF812D91AE83BF83B6D08D
:10050200503009F051503150EBCF48C020E3EE811A
:10051200FF81F3D0E887F987EE81FF813296EE837F
:10052200FF83E885F985AA85BB85AE17BF0750F022
:100532002F5FA885B985EA85FB85EA1BFB0BEA8755
:10054200FB87EFCF2A3328F003FF02C0295F01C0E7
:10055200295D04FD19C0213320F4A885B9851197BE
:1005620009F409C0531710F000FF01C011C020E2C6
:1005720007FF0AC020E3006102FF06C00B7F4A9317
:1005820082D0503009F0515071D0503009F05150A2
:100592003150A885B985129708F0B8CF00FF07C07F
:1005A200503029F05150E0E2EA936DD0F9CF10E0DB
:1005B200ECCEAC85BD85ED91FD917CD0649608951D
:1005C200FF92F82E26976FD0FE0187D04685578579
:1005D200042E052A19F4EFEFFFEF1FC0DE01189673
:1005E20080D08D0148875987E0E0EA87EB87DE01FA
:1005F2001C9677D0ED91FD91FA93EA931A930A93A0
:10060200E0E9F1E0FA93EA93DE011C96B3DE9F0182
:10061200A885B985E0E0EC93F9014CD02C96FF90C7
:100622000895BA93AA93A991B991EE27FF276D91E4
:10063200662311F03196FBCF0895BA93AA93AA27A5
:10064200BB27E991F9910590002011F01196FBCF9B
:10065200FD010895E12F1F5FF0E0E20FF31F0895FF
:10066200ED91FD913196FE93EE9308952A93AD8517
:10067200BE85EF85F88909950895E889F989349747
:10068200E88BF98B0895AD85BE85EF85F8890995CC
:100692000895A889B9891496ED91FD91EE83FF839F
:1006A200AE81BF8108955A934A933A932A931A933B
:1006B2000A9308955D814C813B812A8119810881C9
:1006C2000895AF93BF93DB01AC0FBD1F05900D9250
:1006D2008A95E1F7BF91AF9108950024EF0DF01DC7
:1006E20008950024AF0DB01D0895F195E195F040F5
:1006F2000895ED91FC91119708950590F491E02DE4
:1007020008957A936A93FA93EA930895109639F0CA
:10071200A89580EA9FE00197F1F71197C9F708952C
:00000001FF
