:060000000C9459000C9461
:1000060000000C9400000C9400000C9400000C946A
:1000160000000C9400000C9400000C9400000C945A
:1000260000000C9400000C9488000C9400000C94C2
:1000360000000C9400000C9400000C9400000C943A
:1000460000000C9400000C9400000C9400000C942A
:1000560000000C9400000C9400000C9400000C941A
:1000660000001027E80364000A00010000100001E8
:1000760010000100FC60DBF366B7BEE1FEF6414707
:10008600555354494E20444F4D494E4755455A20E5
:100096004F564945444F2041303032343932353796
:1000A6000A0D00000A0000037A000000F894EE270B
:1000B600EFBBF1E0F5BFE5BF8DE0A2E0BB27ED9316
:1000C6008A95E9F780E098E0A0E0B1E0ED9301972A
:1000D600E9F7EAEAF0E085919591009761F0A5913C
:1000E600B59105901590BF01F00105900D9201970D
:1000F600E1F7FB01F0CFE0E0EEBBEFEFEDBFE8E0AC
:10010600EEBFC0E0D3E00C94A900459B02C0459821
:1001160001C0459A1895AA93E881E064E0937C00B3
:100126008BE18A95F1F7E0917A00E064E0937A003A
:10013600E0917A00E071E1F3E0917A00E061E0930A
:100146007A00E0917800F0917900C6C03D9AE0E02F
:10015600E0938000EBE0E0938100E2E2E093890027
:10016600E0EEE0938800E2E0E0936F007894EEEF33
:10017600E4B9ECE7EAB9E2E4E4BDE3E0E5BDEEEAC2
:10018600E7BDE0E0E093C000E8E1E093C100E6E00F
:10019600E093C200E0E0E093C500E9E1E093C4002B
:1001A600E2E0E0937E00E0E4E0937C00E6E8E093A2
:1001B6007A00E0E0E0937B00E4E8F0E0FA93EA936B
:1001C60080E0CDD12296A1E0A6DF662777270E94A0
:1001D6007B03A0E0B0E080EA90E40E940004DF0127
:1001E600CB01E0E0F0E060E874E40E944E04E093A6
:1001F6000A03F0930B0360930C0370930D03AEE0B8
:10020600B3E00E944203EC93E0910E03F0E0A0916C
:100216000A03B0910B0380910C0390910D030E9489
:10022600C3040E947B030E94D0040E94AE03DF0138
:10023600CB01ECE5FFE862E07FE30E94930428F03F
:10024600E0910E03EF5FE0930E03E0910E03F0E002
:10025600E050FD4FE081E5B9E091C000E07859F14A
:100266002CD0E0930F03F0E0E133A0E0FA0731F47D
:100276005D9B02C05D9801C05D9A1DC0E233A0E09F
:10028600FA0731F45C9B02C05C9801C05C9A13C00B
:10029600E333A0E0FA0731F45B9B02C05B9801C030
:1002A6005B9A09C0E433A0E0FA0729F45A9B02C01E
:1002B6005A9801C05A9A87CFFFCFE091C000E078E4
:1002C600E1F3E091C6000895AA93E091C000E072C0
:1002D600E1F3E881E093C60021960895BA93AA93C4
:1002E600AA81F2DFA881B981ED91FD913196FE9345
:1002F600EE9323960895BA93AA9326970E94DD0457
:1003060000E0AC85BD85E0E0F0E0ED93FC93EA8982
:10031600FB893196EA8BFB8B3197E4913E2FE030D7
:1003260009F415C1E02FE03039F4353211F401E05B
:1003360002C00E94F0020AC1E130A9F4353219F474
:100346000E94F00202C102E050E010E03D3211F4DA
:1003560011E0FCC03B3211F45BE2F8C0303211F41C
:1003660050E2F4C002C0E23039F440E003E030333A
:1003760011F41068EBC003C0E33009F0E7C0303376
:1003860010F03A3308F007C0AAE04A9F402DE32F49
:10039600E0534E0FDBC0E32FE33649F40E94F70229
:1003A600E889F989A481AA930E94FD02CEC0E337A9
:1003B60041F40E94F7020E9403030E94D7020E2F07
:1003C6000AC0E03761F40E94F7020E9403030E940C
:1003D600E3020E2F186012601F7720E034C0E43667
:1003E60011F0E93611F4146002C0E53731F4E8E69D
:1003F600F0E0EE83FF8305E00CC0E83511F41860E9
:1004060003C0E83709F0A1C0E2E7F0E0EE83FF831E
:1004160004E012FF14C00E94F7020E940D03AB8590
:10042600AA233AF4EA85FB850E94B704EA87FB878C
:100436005DE2503011F00F5F01C01B7F04C00E94C7
:10044600F7020E940D0310FD11C0041778F417FF80
:1004560008C012FF04C01B7F352F015001C030E3D6
:1004660001C030E20E94F0024150EFCF202F11FF71
:1004760017C02030A1F013FF06C0EE81FF81359131
:10048600EE83FF8305C0AE81BF813D91AE83BF83FE
:100496000E94F002403009F041502150EACF4BC093
:1004A60030E3EE81FF810E94CC04E887F987EE8174
:1004B600FF813296EE83FF83E885F985AA85BB85A1
:1004C600AE17BF0750F03F5FA885B985EA85FB8563
:1004D600EA1BFB0BEA87FB87EFCF3A3328F013FFC3
:1004E60002C0395F01C0395D14FD1AC0313320F4F2
:1004F600A885B985119709F409C0421710F010FFB5
:1005060001C013C030E217FF0BC030E3106112FFC9
:1005160007C01B7F5A930E94FD02403009F04150EC
:100526000E94F002403009F041502150A885B9855B
:10053600129708F0B5CF10FF08C0403031F0415097
:10054600E0E2EA930E94FD02F8CF00E0E0CEAC853F
:10055600BD850E94C8040E94E40464960895FF9233
:10056600F82E26971A930A93DE0114960E94B30476
:100576008D01E0E0EC83ED83EE83EF83DE011896D8
:100586000E94B3040E94C804FA93EA931A930A934A
:10059600E1E7F1E0FA93EA93DE011896ACDE198101
:1005A60008812896FF900895BA93AA93A991B991C4
:1005B600EE27FF276D91662311F03196FBCF089544
:1005C600BA93AA93AA27BB27E991F991059000202F
:1005D60011F01196FBCFFD0108953A93AD85BE85C6
:1005E600EF85F88909950895E889F9893497E88BA4
:1005F600F98B0895AD85BE85EF85F889099508952F
:10060600A889B98914960E94C804EE83FF83AE8137
:10061600BF810895A889B98914960E94C804EA87FB
:10062600FB870895552342F4503811F4E0FF04C0C7
:100636003196691F791F6BF050E8572711F45F93C5
:10064600CAC05F3F31F0660F000C57956795752F4E
:1006560008955F9300200AF0CAC0C3C050E8192E5F
:100666001522880F991F9527550F879550E8072E55
:100676000522660F771F7527550F679508956894AD
:1006860001C0E8945F93F2DF703818F07F3F08F4FA
:10069600A2C056E1571BAAF4519558300EF45930B2
:1006A60030F0EFEFFFEF6FEF7FE777F91AC07727AC
:1006B6005523B9F0EE0FFF1F661F771F5A95D1F726
:1006C60010C07727583028F0EF2FF62F672F585095
:1006D600F9CF552331F076956795F795E7955A95B5
:1006E600D1F700200AF444D15F910895689401C0BF
:1006F600E894309760407040B1F0002426F07723EC
:1007060012F4009435D1172E7EE1112032F07A953D
:10071600EE0FFF1F661F111CF9CFEF2FF62F612D6D
:100726005F938ADF5F9108954F93AF01FD01DA0170
:10073600AB01BC01CA01402D012C142E4F91089526
:10074600EA0FFB1F681F0895E095F0956095EF5F2F
:10075600FF4F6F4F08955F9381DF903849F150E85E
:100766001526703821F1572F591B2BF112F4DCDFB7
:10077600FACF583118F0AA27BB278827583028F017
:10078600AB2FB82F88275850F9CF552329F08695D7
:10079600B795A7955A95D9F7502D512572F0D0DF08
:1007A60038F46795F795E795739513F420C0BCDF89
:1007B60043DF5F910895D8F7FBCFEA1BFB0B680B6D
:1007C60051F010F40094C0DF662392F3EE0FFF1F82
:1007D600661F7A95CBF7EE27FF27662777275F9167
:1007E6000895EFEFFFEF6FE77FEF5F910895EFEF6B
:1007F600FFEF6FE77FE75F9108955F932FDF703814
:1008060051F3903841F301240894791F23F41CF323
:1008160000203AF3ECCF0F921F932F933F934F9301
:10082600112722279927689FA0018F9F302D410D00
:10083600591F6B9F300D411D591F8E9F27D0BF9F9B
:1008460025D06A9F23D0BE9F1DD0AF9F1BD0AE9FE1
:10085600110D291F391F491F591FE32FF42F652F2B
:10086600522F4F913F912F911F910F9066232AF09F
:10087600550FEE1FFF1F661F02C073954BF2D2DEA7
:100886005F910895100D211D391F02C0200D311DE5
:10089600491F591F08955F93E1DE703821F4112036
:1008A6000AF49FCFA4CF903809F495CF0124089479
:1008B600970B1BF4D4F30020F3CF792F1F932F93BC
:1008C6003F934F9311241127222733274427552777
:1008D60090E2AE17BF078607410730F0AE1BBF0B8D
:1008E600860B410B089401C08894551F221F331FA5
:1008F600111CAA1FBB1F881F441F9A9551F7F901A7
:10090600612D4F913F912F911F91662332F0550F24
:10091600EE1FFF1F661F7A9543F284DE5F910895EE
:1009260099239AF0772342F0971748F029F4AE17E7
:10093600BF07860720F031F098948894089598941C
:10094600089408951894889408957723C2F7971702
:1009560098F3A9F7EA17FB07680788F399F3ECCF32
:100966000024AF0DB01D0895F195E195F04008956E
:10097600F09560957095E195FF4F6F4F7F4F089505
:100986006F2F660F660B762F0895ED91FC911197E8
:1009960008950590F491E02D0895182E862F612D67
:1009A600192E972F712D1B2EBF2FF12D1A2EAE2F1C
:1009B600E12D08955A934A933A932A931A930A93E8
:1009C60008955D814C813B812A81198108810895B2
:00000001FF
